{
	"tests/prague/eip2537_bls_12_381_precompiles/test_bls12_g1mul.py::test_valid[fork_Prague-state_test-bls_g1mul_(0*g1=inf)-]": {
		"env": {
			"currentCoinbase": "0x2adc25665018aa1fe0e6bc666dac8fc2697ff9ba",
			"currentGasLimit": "0x055d4a80",
			"currentNumber": "0x01",
			"currentTimestamp": "0x03e8",
			"currentRandom": "0x0000000000000000000000000000000000000000000000000000000000000000",
			"currentDifficulty": "0x00",
			"currentBaseFee": "0x07",
			"currentExcessBlobGas": "0x00"
		},
		"pre": {
			"0x1000000000000000000000000000000000001000": {
				"nonce": "0x01",
				"balance": "0x00",
				"code": "0x366000600037600060003660006000600c612ee0f16000553d6001553d600060003e3d600020600255",
				"storage": {}
			},
			"0xa94f5374fce5edbc8e2a8697c15331677e6ebf0b": {
				"nonce": "0x00",
				"balance": "0x0de0b6b3a7640000",
				"code": "0x",
				"storage": {}
			}
		},
		"transaction": {
			"nonce": "0x00",
			"gasPrice": "0x0a",
			"gasLimit": [
				"0x0218f9"
			],
			"to": "0x1000000000000000000000000000000000001000",
			"value": [
				"0x00"
			],
			"data": [
				"0x0000000000000000000000000000000017f1d3a73197d7942695638c4fa9ac0fc3688c4f9774b905a14e3a3f171bac586c55e83ff97a1aeffb3af00adb22c6bb0000000000000000000000000000000008b3f481e3aaa0f1a09e30ed741d8ae4fcf5e095d5d00af600db18cb2c04b3edd03cc744a2888ae40caa232946c5e7e10000000000000000000000000000000000000000000000000000000000000000"
			],
			"sender": "0xa94f5374fce5edbc8e2a8697c15331677e6ebf0b",
			"secretKey": "0x45a915e4d060149eb4365960e6a7a45f334393093061116b197e3240065ff2d8"
		},
		"post": {
			"Prague": [
				{
					"hash": "0x76efc81fe74908d623417899f1cb623f34bc85bf76b404a762a85d7d7bfe44b9",
					"logs": "0x1dcc4de8dec75d7aab85b567b6ccd41ad312451b948a7413f0a142fd40d49347",
					"txbytes": "0xf90101800a830218f994100000000000000000000000000000000000100080b8a00000000000000000000000000000000017f1d3a73197d7942695638c4fa9ac0fc3688c4f9774b905a14e3a3f171bac586c55e83ff97a1aeffb3af00adb22c6bb0000000000000000000000000000000008b3f481e3aaa0f1a09e30ed741d8ae4fcf5e095d5d00af600db18cb2c04b3edd03cc744a2888ae40caa232946c5e7e1000000000000000000000000000000000000000000000000000000000000000026a058c7b0224774183141666121f51b285f0a9b2a58d0f1c50fea5b0466a7d94e3ca06c22ff9f2e87842672d530629dec74d51144148562586e22ef797478e89b397e",
					"indexes": {
						"data": 0,
						"gas": 0,
						"value": 0
					},
					"state": {
						"0x1000000000000000000000000000000000001000": {
							"nonce": "0x01",
							"balance": "0x00",
							"code": "0x366000600037600060003660006000600c612ee0f16000553d6001553d600060003e3d600020600255",
							"storage": {
								"0x00": "0x01",
								"0x01": "0x80",
								"0x02": "0x012893657d8eb2efad4de0a91bcd0e39ad9837745dec3ea923737ea803fc8e3d"
							}
						},
						"0xa94f5374fce5edbc8e2a8697c15331677e6ebf0b": {
							"nonce": "0x01",
							"balance": "0x0de0b6b3a75489a4",
							"code": "0x",
							"storage": {}
						},
						"0x2adc25665018aa1fe0e6bc666dac8fc2697ff9ba": {
							"nonce": "0x00",
							"balance": "0x04a382",
							"code": "0x",
							"storage": {}
						}
					}
				}
			]
		},
		"config": {
			"blobSchedule": {
				"Cancun": {
					"target": "0x03",
					"max": "0x06",
					"baseFeeUpdateFraction": "0x32f0ed"
				},
				"Prague": {
					"target": "0x06",
					"max": "0x09",
					"baseFeeUpdateFraction": "0x4c6964"
				}
			},
			"chainid": "0x01"
		},
		"_info": {
			"hash": "0xe78907e89ae06f39f9b32eae0e06e57890e8c965c15d83c72feaa91a30840e65",
			"comment": "`execution-spec-tests` generated test",
			"filling-transition-tool": "ethereum-spec-evm-resolver 0.0.5",
			"description": "Test the BLS12_G1MUL precompile.",
			"url": "https://github.com/ethereum/execution-spec-tests/blob/3642b2095d05092f84b3ccd39c7cadba546058ea/tests/prague/eip2537_bls_12_381_precompiles/test_bls12_g1mul.py#L24",
			"fixture-format": "state_test",
			"reference-spec": "https://github.com/ethereum/EIPs/blob/master/EIPS/eip-2537.md",
			"reference-spec-version": "c561ec1426fe5ec470eade499a0bd4174f270583",
			"eels-resolution": {
				"git-url": "https://github.com/marioevz/execution-specs.git",
				"branch": "forks/bpo1",
				"commit": "3387e5f4aedfe99becfdc39b444d6371e25e0924"
			}
		}
	}
}
