{
  "info": {
    "rpc_url": "http://localhost:8545",
    "block_number_requested": "2"
  },
  "block_number": "0x2",
  "block_hash": "0x81a9e28d8d785a4f3c0dfeb443548c3a8e159f5dc5973f11c84a1b3add9ac010",
  "transactions": [
    {
      "blockHash": "0x81a9e28d8d785a4f3c0dfeb443548c3a8e159f5dc5973f11c84a1b3add9ac010",
      "blockNumber": "0x2",
      "from": "0xf24ff3a9cf04c71dbc94d0b566f7a27b94566cac",
      "hash": "0xfeccc4e0012e62751d2408e05d383e5b2470bdc5952a049fecf2297cb3233061",
      "transactionIndex": "0x0",
      "chainId": "0x2a",
      "gas": "0x5208",
      "gasPrice": "0x342a9570",
      "input": "0x",
      "nonce": "0x1",
      "to": "0xff64d3f6efe2317ee2807d223a0bdc4c0c49dfdb",
      "type": "0x0",
      "value": "0x3635c9adc5dea00000",
      "r": "0x207938f95d72bdc481c7f773b6d6f29b9b1c1e3848b9fd573008e020044e7b07",
      "s": "0x6ba87cd15b9645448af3d438c7fe4c38139b414d2df70cfa55906d166ef553e8",
      "v": "0x78"
    }
  ],
  "transactions_rlp": [
    "0xf86c0184342a957082520894ff64d3f6efe2317ee2807d223a0bdc4c0c49dfdb893635c9adc5dea000008078a0207938f95d72bdc481c7f773b6d6f29b9b1c1e3848b9fd573008e020044e7b07a06ba87cd15b9645448af3d438c7fe4c38139b414d2df70cfa55906d166ef553e8"
  ],
  "transactions_root": "0x7975ee0227824995bd0d6b92c4c5a277274ef37b31e81d81916b6093f9b9948f",
  "receipts": [
    {
      "blockHash": "0x81a9e28d8d785a4f3c0dfeb443548c3a8e159f5dc5973f11c84a1b3add9ac010",
      "blockNumber": "0x2",
      "contractAddress": null,
      "cumulativeGasUsed": "0x5208",
      "effectiveGasPrice": "0x342a9570",
      "from": "0xf24ff3a9cf04c71dbc94d0b566f7a27b94566cac",
      "gasUsed": "0x5208",
      "logs": [],
      "logsBloom": "0x00000000000000000000000000000000000000000000000000000000000000000000000000000000000000000000000000000000000000000000000000000000000000000000000000000000000000000000000000000000000000000000000000000000000000000000000000000000000000000000000000000000000000000000000000000000000000000000000000000000000000000000000000000000000000000000000000000000000000000000000000000000000000000000000000000000000000000000000000000000000000000000000000000000000000000000000000000000000000000000000000000000000000000000000000000000",
      "status": "0x1",
      "to": "0xff64d3f6efe2317ee2807d223a0bdc4c0c49dfdb",
      "transactionHash": "0xfeccc4e0012e62751d2408e05d383e5b2470bdc5952a049fecf2297cb3233061",
      "transactionIndex": "0x0",
      "type": "0x0"
    }
  ],
  "receipts_rlp": [
    "0xf9010801825208b9010000000000000000000000000000000000000000000000000000000000000000000000000000000000000000000000000000000000000000000000000000000000000000000000000000000000000000000000000000000000000000000000000000000000000000000000000000000000000000000000000000000000000000000000000000000000000000000000000000000000000000000000000000000000000000000000000000000000000000000000000000000000000000000000000000000000000000000000000000000000000000000000000000000000000000000000000000000000000000000000000000000000000000000000000000000000c0"
  ],
  "receipts_root": "0x056b23fbba480696b65fe5a59b8f2148a1299103c4f57df839233af2cf4ca2d2"
}