{
  "info": {
    "rpc_url": "http://localhost:8545",
    "block_number_requested": "6"
  },
  "block_number": "0x6",
  "block_hash": "0x64a8546a8bd8522a4bb0b5d33814163be9cac37437db18718e372807bbe0d809",
  "transactions": [
    {
      "blockHash": "0x64a8546a8bd8522a4bb0b5d33814163be9cac37437db18718e372807bbe0d809",
      "blockNumber": "0x6",
      "from": "0xf24ff3a9cf04c71dbc94d0b566f7a27b94566cac",
      "hash": "0x67888ca048262b0dba2b334b71dd9e4d71c394e9fbafa34fc950723da7624ec1",
      "transactionIndex": "0x0",
      "accessList": [],
      "chainId": "0x2a",
      "gas": "0x5208",
      "gasPrice": "0x1e9b961d",
      "input": "0x",
      "nonce": "0x5",
      "to": "0xff64d3f6efe2317ee2807d223a0bdc4c0c49dfdb",
      "type": "0x1",
      "value": "0x3635c9adc5dea00000",
      "r": "0x358f1ca87260038a0f514cb18471cdbc3951d73a007a4e293b6bb1eac4ded016",
      "s": "0x7e0a81bdc98fbd153fa088d7a1296085576148c9d126db5bbd3f69884bbca47e",
      "v": "0x0",
      "yParity": "0x0"
    }
  ],
  "transactions_rlp": [
    "0x01f86e2a05841e9b961d82520894ff64d3f6efe2317ee2807d223a0bdc4c0c49dfdb893635c9adc5dea0000080c080a0358f1ca87260038a0f514cb18471cdbc3951d73a007a4e293b6bb1eac4ded016a07e0a81bdc98fbd153fa088d7a1296085576148c9d126db5bbd3f69884bbca47e"
  ],
  "transactions_root": "0xe8a355c974c07b8d46471a4f53462576efa12d90f7ccf80406b71907fe48810b",
  "receipts": [
    {
      "blockHash": "0x64a8546a8bd8522a4bb0b5d33814163be9cac37437db18718e372807bbe0d809",
      "blockNumber": "0x6",
      "contractAddress": null,
      "cumulativeGasUsed": "0x5208",
      "effectiveGasPrice": "0x1e9b961d",
      "from": "0xf24ff3a9cf04c71dbc94d0b566f7a27b94566cac",
      "gasUsed": "0x5208",
      "logs": [],
      "logsBloom": "0x00000000000000000000000000000000000000000000000000000000000000000000000000000000000000000000000000000000000000000000000000000000000000000000000000000000000000000000000000000000000000000000000000000000000000000000000000000000000000000000000000000000000000000000000000000000000000000000000000000000000000000000000000000000000000000000000000000000000000000000000000000000000000000000000000000000000000000000000000000000000000000000000000000000000000000000000000000000000000000000000000000000000000000000000000000000",
      "status": "0x1",
      "to": "0xff64d3f6efe2317ee2807d223a0bdc4c0c49dfdb",
      "transactionHash": "0x67888ca048262b0dba2b334b71dd9e4d71c394e9fbafa34fc950723da7624ec1",
      "transactionIndex": "0x0",
      "type": "0x1"
    }
  ],
  "receipts_rlp": [
    "0x01f9010801825208b9010000000000000000000000000000000000000000000000000000000000000000000000000000000000000000000000000000000000000000000000000000000000000000000000000000000000000000000000000000000000000000000000000000000000000000000000000000000000000000000000000000000000000000000000000000000000000000000000000000000000000000000000000000000000000000000000000000000000000000000000000000000000000000000000000000000000000000000000000000000000000000000000000000000000000000000000000000000000000000000000000000000000000000000000000000000000c0"
  ],
  "receipts_root": "0xd3a6acf9a244d78b33831df95d472c4128ea85bf079a1d41e32ed0b7d2244c9e"
}