{
  "info": {
    "rpc_url": "http://localhost:8545",
    "block_number_requested": "7"
  },
  "block_number": "0x7",
  "block_hash": "0xb7d36aa0a6a4cb3e08bfddc92da1b7e3dab47f6b8f5462ec4318fb57ddd139b0",
  "transactions": [
    {
      "blockHash": "0xb7d36aa0a6a4cb3e08bfddc92da1b7e3dab47f6b8f5462ec4318fb57ddd139b0",
      "blockNumber": "0x7",
      "from": "0xf24ff3a9cf04c71dbc94d0b566f7a27b94566cac",
      "hash": "0x23e916ea001bdd8472256f192f4f868c8346541ca20e1f2cbb70b68a451952df",
      "transactionIndex": "0x0",
      "accessList": [],
      "chainId": "0x2a",
      "gas": "0x5208",
      "gasPrice": "0x1dcd6500",
      "input": "0x",
      "maxFeePerGas": "0x1dcd6500",
      "maxPriorityFeePerGas": "0x2faf080",
      "nonce": "0x6",
      "to": "0xff64d3f6efe2317ee2807d223a0bdc4c0c49dfdb",
      "type": "0x2",
      "value": "0x3635c9adc5dea00000",
      "r": "0x184bf0a54ddb00f895f7556832e88013afc246b492958229e8cc5f296691bdd0",
      "s": "0x5edd705177a03da452d3af23256308b5e60e4c97cbd154ddabe17966c06179de",
      "v": "0x0",
      "yParity": "0x0"
    }
  ],
  "transactions_rlp": [
    "0x02f8732a068402faf080841dcd650082520894ff64d3f6efe2317ee2807d223a0bdc4c0c49dfdb893635c9adc5dea0000080c080a0184bf0a54ddb00f895f7556832e88013afc246b492958229e8cc5f296691bdd0a05edd705177a03da452d3af23256308b5e60e4c97cbd154ddabe17966c06179de"
  ],
  "transactions_root": "0x17733c1f55f56281312b15d27900eef7a0a91f768cafe4c4bb8d77b2ef880cb9",
  "receipts": [
    {
      "blockHash": "0xb7d36aa0a6a4cb3e08bfddc92da1b7e3dab47f6b8f5462ec4318fb57ddd139b0",
      "blockNumber": "0x7",
      "contractAddress": null,
      "cumulativeGasUsed": "0x5208",
      "effectiveGasPrice": "0x1dcd6500",
      "from": "0xf24ff3a9cf04c71dbc94d0b566f7a27b94566cac",
      "gasUsed": "0x5208",
      "logs": [],
      "logsBloom": "0x00000000000000000000000000000000000000000000000000000000000000000000000000000000000000000000000000000000000000000000000000000000000000000000000000000000000000000000000000000000000000000000000000000000000000000000000000000000000000000000000000000000000000000000000000000000000000000000000000000000000000000000000000000000000000000000000000000000000000000000000000000000000000000000000000000000000000000000000000000000000000000000000000000000000000000000000000000000000000000000000000000000000000000000000000000000",
      "status": "0x1",
      "to": "0xff64d3f6efe2317ee2807d223a0bdc4c0c49dfdb",
      "transactionHash": "0x23e916ea001bdd8472256f192f4f868c8346541ca20e1f2cbb70b68a451952df",
      "transactionIndex": "0x0",
      "type": "0x2"
    }
  ],
  "receipts_rlp": [
    "0x02f9010801825208b9010000000000000000000000000000000000000000000000000000000000000000000000000000000000000000000000000000000000000000000000000000000000000000000000000000000000000000000000000000000000000000000000000000000000000000000000000000000000000000000000000000000000000000000000000000000000000000000000000000000000000000000000000000000000000000000000000000000000000000000000000000000000000000000000000000000000000000000000000000000000000000000000000000000000000000000000000000000000000000000000000000000000000000000000000000000000c0"
  ],
  "receipts_root": "0xf78dfb743fbd92ade140711c8bbc542b5e307f0ab7984eff35d751969fe57efa"
}